{
  "contractName": "FOAM",
  "abi": [
    {
      "constant": true,
      "inputs": [
        {
          "internalType": "string",
          "name": "",
          "type": "string"
        },
        {
          "internalType": "uint256",
          "name": "",
          "type": "uint256"
        }
      ],
      "name": "detail_array",
      "outputs": [
        {
          "internalType": "string",
          "name": "opening",
          "type": "string"
        },
        {
          "internalType": "string",
          "name": "closing",
          "type": "string"
        },
        {
          "internalType": "uint256",
          "name": "upvotes",
          "type": "uint256"
        },
        {
          "internalType": "uint256",
          "name": "downvotes",
          "type": "uint256"
        }
      ],
      "payable": false,
      "stateMutability": "view",
      "type": "function"
    },
    {
      "constant": false,
      "inputs": [
        {
          "internalType": "string",
          "name": "opening",
          "type": "string"
        },
        {
          "internalType": "string",
          "name": "closing",
          "type": "string"
        },
        {
          "internalType": "string",
          "name": "listingHash",
          "type": "string"
        }
      ],
      "name": "addDetails",
      "outputs": [],
      "payable": false,
      "stateMutability": "nonpayable",
      "type": "function"
    },
    {
      "constant": false,
      "inputs": [
        {
          "internalType": "string",
          "name": "listingHash",
          "type": "string"
        },
        {
          "internalType": "address",
          "name": "detailProvider",
          "type": "address"
        }
      ],
      "name": "upvoteDetail",
      "outputs": [],
      "payable": false,
      "stateMutability": "nonpayable",
      "type": "function"
    },
    {
      "constant": false,
      "inputs": [
        {
          "internalType": "string",
          "name": "listingHash",
          "type": "string"
        },
        {
          "internalType": "address",
          "name": "detailProvider",
          "type": "address"
        }
      ],
      "name": "downvoteDetail",
      "outputs": [],
      "payable": false,
      "stateMutability": "nonpayable",
      "type": "function"
    }
  ],
  "bytecode": "0x608060405234801561001057600080fd5b5061160f806100206000396000f3fe608060405234801561001057600080fd5b506004361061004c5760003560e01c80634314e8ca146100515780636a5aced51461012c578063728bb67114610207578063b1f04bfa146103f0575b600080fd5b61012a6004803603604081101561006757600080fd5b810190808035906020019064010000000081111561008457600080fd5b82018360208201111561009657600080fd5b803590602001918460018302840111640100000000831117156100b857600080fd5b91908080601f016020809104026020016040519081016040528093929190818152602001838380828437600081840152601f19601f820116905080830192505050505050509192919290803573ffffffffffffffffffffffffffffffffffffffff1690602001909291905050506105a8565b005b6102056004803603604081101561014257600080fd5b810190808035906020019064010000000081111561015f57600080fd5b82018360208201111561017157600080fd5b8035906020019184600183028401116401000000008311171561019357600080fd5b91908080601f016020809104026020016040519081016040528093929190818152602001838380828437600081840152601f19601f820116905080830192505050505050509192919290803573ffffffffffffffffffffffffffffffffffffffff169060200190929190505050610bbf565b005b6103ee6004803603606081101561021d57600080fd5b810190808035906020019064010000000081111561023a57600080fd5b82018360208201111561024c57600080fd5b8035906020019184600183028401116401000000008311171561026e57600080fd5b91908080601f016020809104026020016040519081016040528093929190818152602001838380828437600081840152601f19601f820116905080830192505050505050509192919290803590602001906401000000008111156102d157600080fd5b8201836020820111156102e357600080fd5b8035906020019184600183028401116401000000008311171561030557600080fd5b91908080601f016020809104026020016040519081016040528093929190818152602001838380828437600081840152601f19601f8201169050808301925050505050505091929192908035906020019064010000000081111561036857600080fd5b82018360208201111561037a57600080fd5b8035906020019184600183028401116401000000008311171561039c57600080fd5b91908080601f016020809104026020016040519081016040528093929190818152602001838380828437600081840152601f19601f8201169050808301925050505050505091929192905050506111d9565b005b6104b36004803603604081101561040657600080fd5b810190808035906020019064010000000081111561042357600080fd5b82018360208201111561043557600080fd5b8035906020019184600183028401116401000000008311171561045757600080fd5b91908080601f016020809104026020016040519081016040528093929190818152602001838380828437600081840152601f19601f820116905080830192505050505050509192919290803590602001909291905050506113a5565b604051808060200180602001858152602001848152602001838103835287818151815260200191508051906020019080838360005b838110156105035780820151818401526020810190506104e8565b50505050905090810190601f1680156105305780820380516001836020036101000a031916815260200191505b50838103825286818151815260200191508051906020019080838360005b8381101561056957808201518184015260208101905061054e565b50505050905090810190601f1680156105965780820380516001836020036101000a031916815260200191505b50965050505050505060405180910390f35b600080836040518082805190602001908083835b602083106105df57805182526020820191506020810190506020830392506105bc565b6001836020036101000a038019825116818451168082178552505050505050905001915050908152602001604051809103902060008373ffffffffffffffffffffffffffffffffffffffff1673ffffffffffffffffffffffffffffffffffffffff1681526020019081526020016000205490506000600281111561065f57fe5b6001846040518082805190602001908083835b602083106106955780518252602082019150602081019050602083039250610672565b6001836020036101000a038019825116818451168082178552505050505050905001915050908152602001604051809103902082815481106106d357fe5b906000526020600020906005020160040160003373ffffffffffffffffffffffffffffffffffffffff1673ffffffffffffffffffffffffffffffffffffffff16815260200190815260200160002060009054906101000a900460ff16600281111561073a57fe5b14156108bd57600180846040518082805190602001908083835b602083106107775780518252602082019150602081019050602083039250610754565b6001836020036101000a038019825116818451168082178552505050505050905001915050908152602001604051809103902082815481106107b557fe5b906000526020600020906005020160040160003373ffffffffffffffffffffffffffffffffffffffff1673ffffffffffffffffffffffffffffffffffffffff16815260200190815260200160002060006101000a81548160ff0219169083600281111561081e57fe5b02179055506001836040518082805190602001908083835b602083106108595780518252602082019150602081019050602083039250610836565b6001836020036101000a0380198251168184511680821785525050505050509050019150509081526020016040518091039020818154811061089757fe5b906000526020600020906005020160020160008154809291906001019190505550610bba565b6002808111156108c957fe5b6001846040518082805190602001908083835b602083106108ff57805182526020820191506020810190506020830392506108dc565b6001836020036101000a0380198251168184511680821785525050505050509050019150509081526020016040518091039020828154811061093d57fe5b906000526020600020906005020160040160003373ffffffffffffffffffffffffffffffffffffffff1673ffffffffffffffffffffffffffffffffffffffff16815260200190815260200160002060009054906101000a900460ff1660028111156109a457fe5b1415610bb957600180846040518082805190602001908083835b602083106109e157805182526020820191506020810190506020830392506109be565b6001836020036101000a03801982511681845116808217855250505050505090500191505090815260200160405180910390208281548110610a1f57fe5b906000526020600020906005020160040160003373ffffffffffffffffffffffffffffffffffffffff1673ffffffffffffffffffffffffffffffffffffffff16815260200190815260200160002060006101000a81548160ff02191690836002811115610a8857fe5b02179055506001836040518082805190602001908083835b60208310610ac35780518252602082019150602081019050602083039250610aa0565b6001836020036101000a03801982511681845116808217855250505050505090500191505090815260200160405180910390208181548110610b0157fe5b906000526020600020906005020160030160008154809291906001900391905055506001836040518082805190602001908083835b60208310610b595780518252602082019150602081019050602083039250610b36565b6001836020036101000a03801982511681845116808217855250505050505090500191505090815260200160405180910390208181548110610b9757fe5b9060005260206000209060050201600201600081548092919060010191905055505b5b505050565b600080836040518082805190602001908083835b60208310610bf65780518252602082019150602081019050602083039250610bd3565b6001836020036101000a038019825116818451168082178552505050505050905001915050908152602001604051809103902060008373ffffffffffffffffffffffffffffffffffffffff1673ffffffffffffffffffffffffffffffffffffffff16815260200190815260200160002054905060006002811115610c7657fe5b6001846040518082805190602001908083835b60208310610cac5780518252602082019150602081019050602083039250610c89565b6001836020036101000a03801982511681845116808217855250505050505090500191505090815260200160405180910390208281548110610cea57fe5b906000526020600020906005020160040160003373ffffffffffffffffffffffffffffffffffffffff1673ffffffffffffffffffffffffffffffffffffffff16815260200190815260200160002060009054906101000a900460ff166002811115610d5157fe5b1415610ed55760026001846040518082805190602001908083835b60208310610d8f5780518252602082019150602081019050602083039250610d6c565b6001836020036101000a03801982511681845116808217855250505050505090500191505090815260200160405180910390208281548110610dcd57fe5b906000526020600020906005020160040160003373ffffffffffffffffffffffffffffffffffffffff1673ffffffffffffffffffffffffffffffffffffffff16815260200190815260200160002060006101000a81548160ff02191690836002811115610e3657fe5b02179055506001836040518082805190602001908083835b60208310610e715780518252602082019150602081019050602083039250610e4e565b6001836020036101000a03801982511681845116808217855250505050505090500191505090815260200160405180910390208181548110610eaf57fe5b9060005260206000209060050201600301600081548092919060010191905055506111d4565b60016002811115610ee257fe5b6001846040518082805190602001908083835b60208310610f185780518252602082019150602081019050602083039250610ef5565b6001836020036101000a03801982511681845116808217855250505050505090500191505090815260200160405180910390208281548110610f5657fe5b906000526020600020906005020160040160003373ffffffffffffffffffffffffffffffffffffffff1673ffffffffffffffffffffffffffffffffffffffff16815260200190815260200160002060009054906101000a900460ff166002811115610fbd57fe5b14156111d35760026001846040518082805190602001908083835b60208310610ffb5780518252602082019150602081019050602083039250610fd8565b6001836020036101000a0380198251168184511680821785525050505050509050019150509081526020016040518091039020828154811061103957fe5b906000526020600020906005020160040160003373ffffffffffffffffffffffffffffffffffffffff1673ffffffffffffffffffffffffffffffffffffffff16815260200190815260200160002060006101000a81548160ff021916908360028111156110a257fe5b02179055506001836040518082805190602001908083835b602083106110dd57805182526020820191506020810190506020830392506110ba565b6001836020036101000a0380198251168184511680821785525050505050509050019150509081526020016040518091039020818154811061111b57fe5b906000526020600020906005020160020160008154809291906001900391905055506001836040518082805190602001908083835b602083106111735780518252602082019150602081019050602083039250611150565b6001836020036101000a038019825116818451168082178552505050505050905001915050908152602001604051809103902081815481106111b157fe5b9060005260206000209060050201600301600081548092919060010191905055505b5b505050565b6002546000826040518082805190602001908083835b6020831061121257805182526020820191506020810190506020830392506111ef565b6001836020036101000a038019825116818451168082178552505050505050905001915050908152602001604051809103902060003373ffffffffffffffffffffffffffffffffffffffff1673ffffffffffffffffffffffffffffffffffffffff168152602001908152602001600020819055506001816040518082805190602001908083835b602083106112bc5780518252602082019150602081019050602083039250611299565b6001836020036101000a03801982511681845116808217855250505050505090500191505090815260200160405180910390206040518060800160405280858152602001848152602001600081526020016000815250908060018154018082558091505090600182039060005260206000209060050201600090919290919091506000820151816000019080519060200190611359929190611535565b506020820151816001019080519060200190611376929190611535565b506040820151816002015560608201518160030155505050600260008154809291906001019190505550505050565b60018280516020810182018051848252602083016020850120818352809550505050505081815481106113d457fe5b906000526020600020906005020160009150915050806000018054600181600116156101000203166002900480601f0160208091040260200160405190810160405280929190818152602001828054600181600116156101000203166002900480156114815780601f1061145657610100808354040283529160200191611481565b820191906000526020600020905b81548152906001019060200180831161146457829003601f168201915b505050505090806001018054600181600116156101000203166002900480601f01602080910402602001604051908101604052809291908181526020018280546001816001161561010002031660029004801561151f5780601f106114f45761010080835404028352916020019161151f565b820191906000526020600020905b81548152906001019060200180831161150257829003601f168201915b5050505050908060020154908060030154905084565b828054600181600116156101000203166002900490600052602060002090601f016020900481019282601f1061157657805160ff19168380011785556115a4565b828001600101855582156115a4579182015b828111156115a3578251825591602001919060010190611588565b5b5090506115b191906115b5565b5090565b6115d791905b808211156115d35760008160009055506001016115bb565b5090565b9056fea265627a7a723158200d409e761d274c9dc97424019955997469404c959c3e95b8a2017773641c942c64736f6c63430005100032",
  "source": "pragma solidity >=0.4.21 <0.7.0;\n\ncontract FOAM {\n    \n   // mapping(address => Details) public user_poi_mapping; //one user can add only one set of information\n    enum voteStatus {NONE, UP, DOWN}\n    mapping(string => mapping(address => uint))  hash_poi;\n    mapping(string => Details[]) public detail_array;\n    struct Details{\n        string opening;\n        string closing;\n        uint upvotes;\n        uint downvotes;\n        mapping(address => voteStatus) votes;\n    }\n    uint detailCounter;\n    function addDetails(string memory opening, string memory closing,string memory listingHash) public {\n        hash_poi[listingHash][msg.sender]=  detailCounter;\n        \n        detail_array[listingHash].push(Details({opening:opening, closing:closing ,upvotes:0, downvotes: 0}));\n        detailCounter ++;\n        \n    }\n    function upvoteDetail(string memory listingHash, address detailProvider) public {\n        uint index =hash_poi[listingHash][detailProvider];\n        if(detail_array[listingHash][index].votes[msg.sender] == voteStatus.NONE){\n            detail_array[listingHash][index].votes[msg.sender] = voteStatus.UP;\n            detail_array[listingHash][index].upvotes++;\n\n        }\n        else if(detail_array[listingHash][index].votes[msg.sender] == voteStatus.DOWN){\n            \n            detail_array[listingHash][index].votes[msg.sender] = voteStatus.UP;\n            detail_array[listingHash][index].downvotes--;\n            detail_array[listingHash][index].upvotes++;\n        }\n    }\n    function downvoteDetail(string memory listingHash, address detailProvider) public {\n        uint index =hash_poi[listingHash][detailProvider];\n\n        if(detail_array[listingHash][index].votes[msg.sender] == voteStatus.NONE){\n            detail_array[listingHash][index].votes[msg.sender] = voteStatus.DOWN;\n            detail_array[listingHash][index].downvotes++;\n\n        }\n        else if(detail_array[listingHash][index].votes[msg.sender] == voteStatus.UP){\n            \n            detail_array[listingHash][index].votes[msg.sender] = voteStatus.DOWN;\n            detail_array[listingHash][index].upvotes--;\n            detail_array[listingHash][index].downvotes++;\n        }\n    }\n    \n}",
  "sourcePath": "/media/abhimanyu/New Volume/FOAMcontract/contracts/FOAM.sol",
  "compiler": {
    "name": "solc",
    "version": "0.5.16+commit.9c3226ce.Emscripten.clang"
  },
  "schemaVersion": "3.1.0",
  "updatedAt": "2020-05-16T18:10:37.224Z",
  "networkType": "ethereum",
  "devdoc": {
    "methods": {}
  },
  "userdoc": {
    "methods": {}
  }
}