{
  "contractName": "FOAM",
  "abi": [
    {
      "constant": true,
      "inputs": [
        {
          "internalType": "string",
          "name": "",
          "type": "string"
        },
        {
          "internalType": "uint256",
          "name": "",
          "type": "uint256"
        }
      ],
      "name": "detail_array",
      "outputs": [
        {
          "internalType": "uint8",
          "name": "opening_min",
          "type": "uint8"
        },
        {
          "internalType": "uint8",
          "name": "opening_hour",
          "type": "uint8"
        },
        {
          "internalType": "uint8",
          "name": "closing_min",
          "type": "uint8"
        },
        {
          "internalType": "uint8",
          "name": "closing_hour",
          "type": "uint8"
        },
        {
          "internalType": "uint256",
          "name": "upvotes",
          "type": "uint256"
        },
        {
          "internalType": "uint256",
          "name": "downvotes",
          "type": "uint256"
        }
      ],
      "payable": false,
      "stateMutability": "view",
      "type": "function"
    },
    {
      "constant": true,
      "inputs": [
        {
          "internalType": "string",
          "name": "",
          "type": "string"
        }
      ],
      "name": "listing_detail_counter",
      "outputs": [
        {
          "internalType": "uint256",
          "name": "",
          "type": "uint256"
        }
      ],
      "payable": false,
      "stateMutability": "view",
      "type": "function"
    },
    {
      "constant": false,
      "inputs": [
        {
          "internalType": "uint8",
          "name": "opening_min",
          "type": "uint8"
        },
        {
          "internalType": "uint8",
          "name": "opening_hour",
          "type": "uint8"
        },
        {
          "internalType": "uint8",
          "name": "closing_min",
          "type": "uint8"
        },
        {
          "internalType": "uint8",
          "name": "closing_hour",
          "type": "uint8"
        },
        {
          "internalType": "string",
          "name": "listingHash",
          "type": "string"
        }
      ],
      "name": "addDetails",
      "outputs": [],
      "payable": false,
      "stateMutability": "nonpayable",
      "type": "function"
    },
    {
      "constant": true,
      "inputs": [
        {
          "internalType": "string",
          "name": "hash",
          "type": "string"
        }
      ],
      "name": "getDetaild",
      "outputs": [
        {
          "internalType": "uint8[]",
          "name": "",
          "type": "uint8[]"
        },
        {
          "internalType": "uint8[]",
          "name": "",
          "type": "uint8[]"
        },
        {
          "internalType": "uint8[]",
          "name": "",
          "type": "uint8[]"
        },
        {
          "internalType": "uint8[]",
          "name": "",
          "type": "uint8[]"
        },
        {
          "internalType": "uint256[]",
          "name": "",
          "type": "uint256[]"
        },
        {
          "internalType": "uint256[]",
          "name": "",
          "type": "uint256[]"
        }
      ],
      "payable": false,
      "stateMutability": "view",
      "type": "function"
    },
    {
      "constant": false,
      "inputs": [
        {
          "internalType": "string",
          "name": "listingHash",
          "type": "string"
        },
        {
          "internalType": "address",
          "name": "detailProvider",
          "type": "address"
        }
      ],
      "name": "upvoteDetail",
      "outputs": [],
      "payable": false,
      "stateMutability": "nonpayable",
      "type": "function"
    },
    {
      "constant": false,
      "inputs": [
        {
          "internalType": "string",
          "name": "listingHash",
          "type": "string"
        },
        {
          "internalType": "address",
          "name": "detailProvider",
          "type": "address"
        }
      ],
      "name": "downvoteDetail",
      "outputs": [],
      "payable": false,
      "stateMutability": "nonpayable",
      "type": "function"
    }
  ],
  "bytecode": "0x608060405234801561001057600080fd5b5061200d806100206000396000f3fe608060405234801561001057600080fd5b50600436106100615760003560e01c80624578e2146100665780633986026f146101555780634314e8ca146102245780636a5aced5146102ff578063b1f04bfa146103da578063f02575bf146104ee575b600080fd5b610153600480360360a081101561007c57600080fd5b81019080803560ff169060200190929190803560ff169060200190929190803560ff169060200190929190803560ff169060200190929190803590602001906401000000008111156100cd57600080fd5b8201836020820111156100df57600080fd5b8035906020019184600183028401116401000000008311171561010157600080fd5b91908080601f016020809104026020016040519081016040528093929190818152602001838380828437600081840152601f19601f820116905080830192505050505050509192919290505050610766565b005b61020e6004803603602081101561016b57600080fd5b810190808035906020019064010000000081111561018857600080fd5b82018360208201111561019a57600080fd5b803590602001918460018302840111640100000000831117156101bc57600080fd5b91908080601f016020809104026020016040519081016040528093929190818152602001838380828437600081840152601f19601f820116905080830192505050505050509192919290505050610a62565b6040518082815260200191505060405180910390f35b6102fd6004803603604081101561023a57600080fd5b810190808035906020019064010000000081111561025757600080fd5b82018360208201111561026957600080fd5b8035906020019184600183028401116401000000008311171561028b57600080fd5b91908080601f016020809104026020016040519081016040528093929190818152602001838380828437600081840152601f19601f820116905080830192505050505050509192919290803573ffffffffffffffffffffffffffffffffffffffff169060200190929190505050610a90565b005b6103d86004803603604081101561031557600080fd5b810190808035906020019064010000000081111561033257600080fd5b82018360208201111561034457600080fd5b8035906020019184600183028401116401000000008311171561036657600080fd5b91908080601f016020809104026020016040519081016040528093929190818152602001838380828437600081840152601f19601f820116905080830192505050505050509192919290803573ffffffffffffffffffffffffffffffffffffffff1690602001909291905050506110a7565b005b61049d600480360360408110156103f057600080fd5b810190808035906020019064010000000081111561040d57600080fd5b82018360208201111561041f57600080fd5b8035906020019184600183028401116401000000008311171561044157600080fd5b91908080601f016020809104026020016040519081016040528093929190818152602001838380828437600081840152601f19601f820116905080830192505050505050509192919290803590602001909291905050506116c1565b604051808760ff1660ff1681526020018660ff1660ff1681526020018560ff1660ff1681526020018460ff1660ff168152602001838152602001828152602001965050505050505060405180910390f35b6105a76004803603602081101561050457600080fd5b810190808035906020019064010000000081111561052157600080fd5b82018360208201111561053357600080fd5b8035906020019184600183028401116401000000008311171561055557600080fd5b91908080601f016020809104026020016040519081016040528093929190818152602001838380828437600081840152601f19601f820116905080830192505050505050509192919290505050611761565b6040518080602001806020018060200180602001806020018060200187810387528d818151815260200191508051906020019060200280838360005b838110156105fe5780820151818401526020810190506105e3565b5050505090500187810386528c818151815260200191508051906020019060200280838360005b83811015610640578082015181840152602081019050610625565b5050505090500187810385528b818151815260200191508051906020019060200280838360005b83811015610682578082015181840152602081019050610667565b5050505090500187810384528a818151815260200191508051906020019060200280838360005b838110156106c45780820151818401526020810190506106a9565b50505050905001878103835289818151815260200191508051906020019060200280838360005b838110156107065780820151818401526020810190506106eb565b50505050905001878103825288818151815260200191508051906020019060200280838360005b8381101561074857808201518184015260208101905061072d565b505050509050019c5050505050505050505050505060405180910390f35b60006002826040518082805190602001908083835b6020831061079e578051825260208201915060208101905060208303925061077b565b6001836020036101000a0380198251168184511680821785525050505050509050019150509081526020016040518091039020549050806000836040518082805190602001908083835b6020831061080b57805182526020820191506020810190506020830392506107e8565b6001836020036101000a038019825116818451168082178552505050505050905001915050908152602001604051809103902060003373ffffffffffffffffffffffffffffffffffffffff1673ffffffffffffffffffffffffffffffffffffffff168152602001908152602001600020819055506001826040518082805190602001908083835b602083106108b55780518252602082019150602081019050602083039250610892565b6001836020036101000a03801982511681845116808217855250505050505090500191505090815260200160405180910390206040518060c001604052808860ff1681526020018760ff1681526020018660ff1681526020018560ff1681526020016000815260200160008152509080600181540180825580915050906001820390600052602060002090600402016000909192909190915060008201518160000160006101000a81548160ff021916908360ff16021790555060208201518160000160016101000a81548160ff021916908360ff16021790555060408201518160000160026101000a81548160ff021916908360ff16021790555060608201518160000160036101000a81548160ff021916908360ff1602179055506080820151816001015560a08201518160020155505050600181016002836040518082805190602001908083835b60208310610a235780518252602082019150602081019050602083039250610a00565b6001836020036101000a038019825116818451168082178552505050505050905001915050908152602001604051809103902081905550505050505050565b6002818051602081018201805184825260208301602085012081835280955050505050506000915090505481565b600080836040518082805190602001908083835b60208310610ac75780518252602082019150602081019050602083039250610aa4565b6001836020036101000a038019825116818451168082178552505050505050905001915050908152602001604051809103902060008373ffffffffffffffffffffffffffffffffffffffff1673ffffffffffffffffffffffffffffffffffffffff16815260200190815260200160002054905060006002811115610b4757fe5b6001846040518082805190602001908083835b60208310610b7d5780518252602082019150602081019050602083039250610b5a565b6001836020036101000a03801982511681845116808217855250505050505090500191505090815260200160405180910390208281548110610bbb57fe5b906000526020600020906004020160030160003373ffffffffffffffffffffffffffffffffffffffff1673ffffffffffffffffffffffffffffffffffffffff16815260200190815260200160002060009054906101000a900460ff166002811115610c2257fe5b1415610da557600180846040518082805190602001908083835b60208310610c5f5780518252602082019150602081019050602083039250610c3c565b6001836020036101000a03801982511681845116808217855250505050505090500191505090815260200160405180910390208281548110610c9d57fe5b906000526020600020906004020160030160003373ffffffffffffffffffffffffffffffffffffffff1673ffffffffffffffffffffffffffffffffffffffff16815260200190815260200160002060006101000a81548160ff02191690836002811115610d0657fe5b02179055506001836040518082805190602001908083835b60208310610d415780518252602082019150602081019050602083039250610d1e565b6001836020036101000a03801982511681845116808217855250505050505090500191505090815260200160405180910390208181548110610d7f57fe5b9060005260206000209060040201600101600081548092919060010191905055506110a2565b600280811115610db157fe5b6001846040518082805190602001908083835b60208310610de75780518252602082019150602081019050602083039250610dc4565b6001836020036101000a03801982511681845116808217855250505050505090500191505090815260200160405180910390208281548110610e2557fe5b906000526020600020906004020160030160003373ffffffffffffffffffffffffffffffffffffffff1673ffffffffffffffffffffffffffffffffffffffff16815260200190815260200160002060009054906101000a900460ff166002811115610e8c57fe5b14156110a157600180846040518082805190602001908083835b60208310610ec95780518252602082019150602081019050602083039250610ea6565b6001836020036101000a03801982511681845116808217855250505050505090500191505090815260200160405180910390208281548110610f0757fe5b906000526020600020906004020160030160003373ffffffffffffffffffffffffffffffffffffffff1673ffffffffffffffffffffffffffffffffffffffff16815260200190815260200160002060006101000a81548160ff02191690836002811115610f7057fe5b02179055506001836040518082805190602001908083835b60208310610fab5780518252602082019150602081019050602083039250610f88565b6001836020036101000a03801982511681845116808217855250505050505090500191505090815260200160405180910390208181548110610fe957fe5b906000526020600020906004020160020160008154809291906001900391905055506001836040518082805190602001908083835b60208310611041578051825260208201915060208101905060208303925061101e565b6001836020036101000a0380198251168184511680821785525050505050509050019150509081526020016040518091039020818154811061107f57fe5b9060005260206000209060040201600101600081548092919060010191905055505b5b505050565b600080836040518082805190602001908083835b602083106110de57805182526020820191506020810190506020830392506110bb565b6001836020036101000a038019825116818451168082178552505050505050905001915050908152602001604051809103902060008373ffffffffffffffffffffffffffffffffffffffff1673ffffffffffffffffffffffffffffffffffffffff1681526020019081526020016000205490506000600281111561115e57fe5b6001846040518082805190602001908083835b602083106111945780518252602082019150602081019050602083039250611171565b6001836020036101000a038019825116818451168082178552505050505050905001915050908152602001604051809103902082815481106111d257fe5b906000526020600020906004020160030160003373ffffffffffffffffffffffffffffffffffffffff1673ffffffffffffffffffffffffffffffffffffffff16815260200190815260200160002060009054906101000a900460ff16600281111561123957fe5b14156113bd5760026001846040518082805190602001908083835b602083106112775780518252602082019150602081019050602083039250611254565b6001836020036101000a038019825116818451168082178552505050505050905001915050908152602001604051809103902082815481106112b557fe5b906000526020600020906004020160030160003373ffffffffffffffffffffffffffffffffffffffff1673ffffffffffffffffffffffffffffffffffffffff16815260200190815260200160002060006101000a81548160ff0219169083600281111561131e57fe5b02179055506001836040518082805190602001908083835b602083106113595780518252602082019150602081019050602083039250611336565b6001836020036101000a0380198251168184511680821785525050505050509050019150509081526020016040518091039020818154811061139757fe5b9060005260206000209060040201600201600081548092919060010191905055506116bc565b600160028111156113ca57fe5b6001846040518082805190602001908083835b6020831061140057805182526020820191506020810190506020830392506113dd565b6001836020036101000a0380198251168184511680821785525050505050509050019150509081526020016040518091039020828154811061143e57fe5b906000526020600020906004020160030160003373ffffffffffffffffffffffffffffffffffffffff1673ffffffffffffffffffffffffffffffffffffffff16815260200190815260200160002060009054906101000a900460ff1660028111156114a557fe5b14156116bb5760026001846040518082805190602001908083835b602083106114e357805182526020820191506020810190506020830392506114c0565b6001836020036101000a0380198251168184511680821785525050505050509050019150509081526020016040518091039020828154811061152157fe5b906000526020600020906004020160030160003373ffffffffffffffffffffffffffffffffffffffff1673ffffffffffffffffffffffffffffffffffffffff16815260200190815260200160002060006101000a81548160ff0219169083600281111561158a57fe5b02179055506001836040518082805190602001908083835b602083106115c557805182526020820191506020810190506020830392506115a2565b6001836020036101000a0380198251168184511680821785525050505050509050019150509081526020016040518091039020818154811061160357fe5b906000526020600020906004020160010160008154809291906001900391905055506001836040518082805190602001908083835b6020831061165b5780518252602082019150602081019050602083039250611638565b6001836020036101000a0380198251168184511680821785525050505050509050019150509081526020016040518091039020818154811061169957fe5b9060005260206000209060040201600201600081548092919060010191905055505b5b505050565b60018280516020810182018051848252602083016020850120818352809550505050505081815481106116f057fe5b9060005260206000209060040201600091509150508060000160009054906101000a900460ff16908060000160019054906101000a900460ff16908060000160029054906101000a900460ff16908060000160039054906101000a900460ff16908060010154908060020154905086565b60608060608060608060606001886040518082805190602001908083835b602083106117a2578051825260208201915060208101905060208303925061177f565b6001836020036101000a0380198251168184511680821785525050505050509050019150509081526020016040518091039020805490506040519080825280602002602001820160405280156118075781602001602082028038833980820191505090505b50905060606001896040518082805190602001908083835b60208310611842578051825260208201915060208101905060208303925061181f565b6001836020036101000a0380198251168184511680821785525050505050509050019150509081526020016040518091039020805490506040519080825280602002602001820160405280156118a75781602001602082028038833980820191505090505b509050606060018a6040518082805190602001908083835b602083106118e257805182526020820191506020810190506020830392506118bf565b6001836020036101000a0380198251168184511680821785525050505050509050019150509081526020016040518091039020805490506040519080825280602002602001820160405280156119475781602001602082028038833980820191505090505b509050606060018b6040518082805190602001908083835b60208310611982578051825260208201915060208101905060208303925061195f565b6001836020036101000a0380198251168184511680821785525050505050509050019150509081526020016040518091039020805490506040519080825280602002602001820160405280156119e75781602001602082028038833980820191505090505b509050606060018c6040518082805190602001908083835b60208310611a2257805182526020820191506020810190506020830392506119ff565b6001836020036101000a038019825116818451168082178552505050505050905001915050908152602001604051809103902080549050604051908082528060200260200182016040528015611a875781602001602082028038833980820191505090505b509050606060018d6040518082805190602001908083835b60208310611ac25780518252602082019150602081019050602083039250611a9f565b6001836020036101000a038019825116818451168082178552505050505050905001915050908152602001604051809103902080549050604051908082528060200260200182016040528015611b275781602001602082028038833980820191505090505b50905060005b60018e6040518082805190602001908083835b60208310611b635780518252602082019150602081019050602083039250611b40565b6001836020036101000a038019825116818451168082178552505050505050905001915050908152602001604051809103902080549050811015611fb65760018e6040518082805190602001908083835b60208310611bd75780518252602082019150602081019050602083039250611bb4565b6001836020036101000a03801982511681845116808217855250505050505090500191505090815260200160405180910390208181548110611c1557fe5b906000526020600020906004020160000160009054906101000a900460ff16878281518110611c4057fe5b602002602001019060ff16908160ff168152505060018e6040518082805190602001908083835b60208310611c8a5780518252602082019150602081019050602083039250611c67565b6001836020036101000a03801982511681845116808217855250505050505090500191505090815260200160405180910390208181548110611cc857fe5b906000526020600020906004020160000160019054906101000a900460ff16868281518110611cf357fe5b602002602001019060ff16908160ff168152505060018e6040518082805190602001908083835b60208310611d3d5780518252602082019150602081019050602083039250611d1a565b6001836020036101000a03801982511681845116808217855250505050505090500191505090815260200160405180910390208181548110611d7b57fe5b906000526020600020906004020160000160039054906101000a900460ff16848281518110611da657fe5b602002602001019060ff16908160ff168152505060018e6040518082805190602001908083835b60208310611df05780518252602082019150602081019050602083039250611dcd565b6001836020036101000a03801982511681845116808217855250505050505090500191505090815260200160405180910390208181548110611e2e57fe5b906000526020600020906004020160000160029054906101000a900460ff16858281518110611e5957fe5b602002602001019060ff16908160ff168152505060018e6040518082805190602001908083835b60208310611ea35780518252602082019150602081019050602083039250611e80565b6001836020036101000a03801982511681845116808217855250505050505090500191505090815260200160405180910390208181548110611ee157fe5b906000526020600020906004020160010154838281518110611eff57fe5b60200260200101818152505060018e6040518082805190602001908083835b60208310611f415780518252602082019150602081019050602083039250611f1e565b6001836020036101000a03801982511681845116808217855250505050505090500191505090815260200160405180910390208181548110611f7f57fe5b906000526020600020906004020160020154828281518110611f9d57fe5b6020026020010181815250508080600101915050611b2d565b508486858585859b509b509b509b509b509b505050505050509193955091939556fea265627a7a7231582021bd9861f575904a891d0abbfab3ac7946a592b23ecd4871624b454ac80fd7e064736f6c63430005100032",
  "source": "pragma solidity >=0.4.21 <0.7.0;\n\ncontract FOAM {\n    \n   // mapping(address => Details) public user_poi_mapping; //one user can add only one set of information\n    enum voteStatus {NONE, UP, DOWN}\n    mapping(string => mapping(address => uint))  hash_poi;\n    mapping(string => Details[]) public detail_array;\n    mapping(string => uint) public listing_detail_counter;\n    struct Details{\n        uint8 opening_min;\n        uint8 opening_hour;\n        uint8 closing_min;\n        uint8 closing_hour;\n        uint upvotes;\n        uint downvotes;\n        mapping(address => voteStatus) votes;\n    }\n\n    function addDetails(uint8  opening_min,uint8  opening_hour, uint8  closing_min,uint8  closing_hour,string memory listingHash) public {\n        uint counter =listing_detail_counter[listingHash];\n        hash_poi[listingHash][msg.sender]= counter;\n        \n        detail_array[listingHash].push(Details({opening_min:opening_min,opening_hour:opening_hour,closing_min:closing_min, closing_hour:closing_hour ,upvotes:0, downvotes: 0}));\n        listing_detail_counter[listingHash] = counter +1;\n        \n    }\n    function getDetaild(string memory hash) public view returns(uint8[] memory , uint8[] memory  ,uint8[] memory ,uint8[] memory, uint[]memory , uint[]memory ){\n        // opening = detail_array[hash][index].opening;\n        // closing = detail_array[hash][index].closing;\n        // upvotes = detail_array[hash][index].upvotes;\n        // downvotes = detail_array[hash][index].downvotes;\n        uint8[] memory arromin = new uint8[](detail_array[hash].length);\n        uint8[] memory arrohour = new uint8[](detail_array[hash].length);\n        uint8[] memory arrcmin = new uint8[](detail_array[hash].length);\n        uint8[] memory arrchour = new uint8[](detail_array[hash].length);\n        uint[] memory upvotes = new uint[](detail_array[hash].length);\n        uint[] memory downvotes = new uint[](detail_array[hash].length);\n\n        for(uint i;i<detail_array[hash].length;i++){\n            arromin[i]=detail_array[hash][i].opening_min;\n            arrohour[i]=detail_array[hash][i].opening_hour;\n            arrchour[i]=detail_array[hash][i].closing_hour;\n            arrcmin[i]=detail_array[hash][i].closing_min;\n            upvotes[i]=detail_array[hash][i].upvotes;\n            downvotes[i]=detail_array[hash][i].downvotes;\n        }\n        return(arrohour,arromin,arrcmin,arrchour,upvotes, downvotes);\n        \n    }\n   \n    function upvoteDetail(string memory listingHash, address detailProvider) public {\n        uint index =hash_poi[listingHash][detailProvider];\n        if(detail_array[listingHash][index].votes[msg.sender] == voteStatus.NONE){\n            detail_array[listingHash][index].votes[msg.sender] = voteStatus.UP;\n            detail_array[listingHash][index].upvotes++;\n\n        }\n        else if(detail_array[listingHash][index].votes[msg.sender] == voteStatus.DOWN){\n            \n            detail_array[listingHash][index].votes[msg.sender] = voteStatus.UP;\n            detail_array[listingHash][index].downvotes--;\n            detail_array[listingHash][index].upvotes++;\n        }\n    }\n    function downvoteDetail(string memory listingHash, address detailProvider) public {\n        uint index =hash_poi[listingHash][detailProvider];\n\n        if(detail_array[listingHash][index].votes[msg.sender] == voteStatus.NONE){\n            detail_array[listingHash][index].votes[msg.sender] = voteStatus.DOWN;\n            detail_array[listingHash][index].downvotes++;\n\n        }\n        else if(detail_array[listingHash][index].votes[msg.sender] == voteStatus.UP){\n            \n            detail_array[listingHash][index].votes[msg.sender] = voteStatus.DOWN;\n            detail_array[listingHash][index].upvotes--;\n            detail_array[listingHash][index].downvotes++;\n        }\n    }\n    \n}\n",
  "sourcePath": "/media/abhimanyu/New Volume/FOAMcontract/contracts/FOAM.sol",
  "compiler": {
    "name": "solc",
    "version": "0.5.16+commit.9c3226ce.Emscripten.clang"
  },
  "schemaVersion": "3.2.0",
  "updatedAt": "2020-05-24T11:45:37.674Z",
  "networkType": "ethereum",
  "devdoc": {
    "methods": {}
  },
  "userdoc": {
    "methods": {}
  }
}